:020000040800F2
:10000000D8090020010100087F1E0008E31A00083B
:100010007D1E0008DD080008C1290008000000005E
:10002000000000000000000000000000C5220008E1
:10003000DF08000800000000C32200085923000860
:100040001B0100081B0100081B0100081B01000820
:100050001B0100081B0100081B0100081B01000810
:100060001B0100081B0100081B0100081B01000800
:100070001B0100081B0100081B0100081B010008F0
:100080001B0100081B0100081B0100081B010008E0
:100090001B0100081B0100081B0100081B010008D0
:1000A0001B0100081B0100081B0100081B010008C0
:1000B0001B0100081B0100081B0100081B010008B0
:1000C0001B0100081B0100081B0100081B010008A0
:1000D0001B0100082D2900081B0100081B01000856
:1000E0001B0100081B0100081B010008DFF80CD0F1
:1000F00000F064FB0048004711330008D8090020D5
:100100000648804706480047FEE7FEE7FEE7FEE7B1
:10011000FEE7FEE7FEE7FEE7FEE7FEE7BB2300089B
:10012000ED000008202A04DB203A21FA02F0002129
:10013000704721FA02F3D040C2F1200291400843F7
:1001400019467047D2B201E000F8012B491EFBD2DC
:1001500070470022F6E710B513460A4604461946D2
:10016000FFF7F0FF204610BDF0B480EA0102D40F83
:100170004200B2EB410F02D20246084611464A0045
:1001800042D0C30DDDB2C1F3C752AD1A202D35DA0E
:10019000C1F3160141F4000204B15242C5F1200638
:1001A00002FA06F12A411044B3EBD05F23D0C4B168
:1001B000012DA0EBC35009DCF0BC4FF0004202EA75
:1001C000C352DBB200F5000000F012B9400000F1AC
:1001D000807000EBC350A0F1807040EAD1704900FC
:1001E00009E0490841EAC071A0EBC35000F50000E6
:1001F000400800EBC350F0BC00F0F1B861420122AE
:1002000002EB4101001BF6E7F0BC704781F00041B2
:10021000AAE780F00040A7E780EA010210B502F0EB
:100220000043400022D04A001FD0010E01EB1261B2
:10023000C0F35600C2F3560240F4000042F400023C
:10024000A0FB022000047F39140400D0401C50EAB7
:10025000124001D44000491EC2B20C0604EBD0107B
:10026000401C4008802A02D003E0002010BD20F08E
:100270000100002900DA0020184310BD30B480EAE4
:10028000010202F0004530F0004221F0004013D09E
:1002900090B1C30DD40DC2F31601C0F31600E41AD9
:1002A00041F4000140F400027D34914201D3641C0A
:1002B00000E04900002C02DA30BC002070474FF407
:1002C00000000023914201D3891A034340084FEAFA
:1002D0004101F7D151B1914202D14FF0004105E007
:1002E00002D24FF0010101E06FF0010103EBC450B5
:1002F000284430BC00F073B896230022114600F069
:1003000077B820F00040C10DC0F3160040F40000A3
:100310007F2901DA00207047962903DCC1F196019C
:10032000C840704796398840704700F0004230F06E
:1003300000400AD0C10D01F56071C0F3160042EA19
:100340000151C20840071143704700200146704721
:1003500030B50B46014600202022012409E021FA95
:1003600002F59D4205D303FA02F5491B04FA02F592
:100370002844151EA2F10102F1DC30BD2DE9F05F29
:100380000546002092469B46884606468146402404
:100390001BE02846414647462246FFF7C3FE534628
:1003A0005A46C01A914110D311461846224600F011
:1003B00017FA2D1A67EB01084F462246012000214B
:1003C00000F00EFA17EB00094E41201EA4F10104C3
:1003D000DFDC484631462A464346BDE8F09F002907
:1003E000A8BF7047401C490008BF20F001007047BB
:1003F00010B4B0FA80FC00FA0CF050EA010404BF1B
:1004000010BC704749B1CCF1200421FA04F411FA70
:100410000CF118BF012121430843A3EB0C01CB1DB4
:100420004FEA00614FEA102042BF002010BC704725
:1004300000EBC35010440029A4BF10BC7047401CFF
:10044000490008BF20F0010010BC70472DE9FE4FA5
:10045000804681EA0300C00F0C46009021F0004165
:1004600023F00045B8EB0200A94105D240462146E1
:1004700090461C460B46024623F00040104347D0EE
:10048000270DC7F30A00C3F30A510290401A0190E6
:1004900040286BDAC3F3130040F4801B00989246A7
:1004A00020B10023D2EB030A63EB0B0B01985946F2
:1004B000C0F14002504600F093F906460D46504602
:1004C0005946019A00F09BF910EB080061410024A5
:1004D00087EA115284EAE7731A4340D0009A62B364
:1004E000019A012A4FEA075215DC001B61EB020159
:1004F0004FF0004202EA0752CDE90042001C41F5EC
:10050000801132462B4600F09BF903B0BDE8F08F16
:1005100040462146F9E7001B61EB0201001C41F552
:10052000801300185B412018A2F5001747EB030168
:1005300040EAD570B6196D4111E06D084FEA3606F4
:1005400045EAC0754FEA0752001B61EB0201001C2F
:1005500041F5801149084FEA3000001951413246F7
:100560002B4603B0BDE8F04F00F05BB900980122C4
:1005700040000023D0EB020263EBE07300982146B9
:100580004FEAE074B8EB000061EB0401E9E783F0A7
:1005900000435BE781F0004158E72DE9FE4F81EA17
:1005A000030404F0004421F0004100944FF0000BDC
:1005B00023F0004350EA01045ED052EA03045BD00A
:1005C000C3F30A54C1F30A552C44A4F2F334019442
:1005D000A0FB0254C1F3130141F48011C3F31303D0
:1005E00043F4801301FB024400FB034E840A970A84
:1005F00044EA815447EA8357A4FB076802958D0AB1
:1006000005FB07854FEA932C04FB0C542705029D3C
:100610004FEA065847EA1637B5EB08056EEB070CAC
:10062000870E920E47EA811742EA8312A7FB020166
:10063000B6EB0B0164EB00042B0D43EA0C335E18A0
:1006400044EB1C50DA465146E7FB0201C5F31304A4
:100650004FEA0B3343EA14534FEA0432019C43EA56
:100660000603A4F10C040294009CCDE900B400F050
:10067000E7F803B0BDE8F08F00200146F9E72DE967
:10068000F04D81EA030404F0004B21F000451446CC
:100690004FF0000A23F0004150EA050220D054EA4E
:1006A00001021DD0C5F30A570246C5F31303C1F377
:1006B0001300C1F30A5640F4801543F48013A7EBEE
:1006C0000608101BD64608F2FD3873EB050002D36E
:1006D00008F1010801E092185B41B8F1000F03DA5C
:1006E00000200146BDE8F08D00204FF48011064641
:1006F00084460EE0171B73EB050705D3121B63EB53
:10070000050306434CEA010C49084FEA30009218F1
:100710005B4150EA0107EDD152EA030012D082EAB0
:10072000040083EA0501084305D0101BAB4106D243
:100730000122002306E000224FF0004302E06FF0A8
:10074000010253101AEB06004CEB085110EB0A00A3
:1007500041EB0B01BDE8F04D00F063B8C1F30A5264
:10076000C1F3130140F2FF3341F480119A4202DADF
:1007700000200146704740F233439A42A2F23342CE
:1007800002DC5242FFF7CEBC00F02AB830B5041E9E
:1007900071F1000404DB4FF00044404264EB0101BE
:1007A000141E73F1000405DB1C464FF00043524257
:1007B00063EB0403994208BF904230BD064C074DDD
:1007C00006E0E06840F0010394E807009847103421
:1007D000AC42F6D3FFF78EFCD0530008F05300086C
:1007E000202A04DB203A00FA02F1002070479140F1
:1007F000C2F1200320FA03F3194390407047202AE6
:1008000006DBCB17203A41FA02F043EAE07306E038
:1008100041FA02F3D040C2F1200291400843194648
:10082000704710B5141E73F1000408DA401C41F142
:10083000000192185B411A4301D120F0010010BD64
:100840002DE9F04D92469B4611B1B1FA81F202E0DA
:10085000B0FA80F220329046FFF7C2FF04460F46FE
:1008600040EA0A0041EA0B0153465A46084313D0B6
:10087000114653EA010019D0C8F140025046FFF773
:1008800051FC05460E46504659464246FFF7A8FF22
:10089000084305D0012004E020463946BDE8F08D2C
:1008A0000020054346EAE0762C4337430A98630567
:1008B000E40AA0EB08000022FD0A44EA47540A308B
:1008C00002D500200146E9E7010510196941DDE97B
:1008D000084500196941BDE8F04DA2E7FEE7704701
:1008E00072B6FEE710B590F821100022022905D05B
:1008F0000421816380F82020012010BD01680B686D
:1009000023F00E030B6001680B6823F001030B60FA
:1009100090F84030C46B012101FA03F3636080F862
:10092000211080F82020104610BD000010B590F86E
:1009300021100024022903D00421816301243DE019
:1009400001680A6822F00E020A6001680A6822F053
:1009500001020A601A4A0168914201D1012121E095
:10096000174A1432914201D110211BE0144A283257
:10097000914201D1891515E0114A3C32914201D1D1
:1009800089140FE00E4A5032914202D14FF4803167
:1009900008E00B4A6432914202D14FF4801101E029
:1009A0004FF08071064A083A5160012180F8211009
:1009B000002180F82010416B01B18847204610BD0E
:1009C0000800024070B5044600F008F90546601CB6
:1009D00002D004480078044400F000F9401BA04213
:1009E000FAD370BD0C0000202DE9F84FDFF8B89164
:1009F0000024A9F1040B23460F2709F1040AABF1E7
:100A0000040EC9E00125A5402A40AA427DD1674EC7
:100A1000D1F804C0ACEB0608B44532D014DCBCF10C
:100A2000030F3AD009DCBCF1000F2AD0BCF1010F52
:100A30001CD0BCF1020F31D11DE0BCF1110F17D059
:100A4000BCF1120F2AD119E0B8F5881F19D006DCC5
:100A5000B8F5803F15D0B8F5801F1FD111E0B8F56B
:100A6000001F0ED0B8F5041F18D10AE0CB6815E0BE
:100A7000CB681B1D12E0CB6808330FE0CB680C334A
:100A80000CE08B682BB1012B4FF0080303D04561BC
:100A900004E0042302E0056100E00023FF2A01D8FE
:100AA000064601E000F104064FEA840501D9A5F1EC
:100AB0002005D6F8008007FA05FC28EA0C0803FA9E
:100AC00005F548EA0508C6F800804D68ED0062D5D6
:100AD000374DAE6946F00106AE61AD6924F00306FC
:100AE00005F001050095334D06EB050CDCF80850C8
:100AF000A607360F07FA06F825EA0805DFF8B880DA
:100B0000404503D14FF0000817E044E0DFF8AC8027
:100B1000404502D14FF001080FE0DFF8A4804045C6
:100B200002D14FF0020808E0DFF89880404502D17A
:100B30004FF0030801E04FF0040808FA06F848EA0D
:100B40000508CCF808804D68D9F80060ED024D46E4
:100B500001D5164300E096432E604D68DAF8006038
:100B6000AD02554601D5164300E096432E604D6810
:100B7000DBF80060AD035D4601D5164300E0964307
:100B80002E604D68DEF80060ED03754601D5164312
:100B900000E096432E60641C0D682A46E5407FF411
:100BA00031AFBDE8F88F00000804014000001110CB
:100BB000001002400000014000080140000C01400C
:100BC00000100140001401408068084000D001205E
:100BD00070470AB1016170470904FBE7014880686A
:100BE000704700000C000020024881680278114420
:100BF000816070470C000020074810B5016841F083
:100C000010010160032000F075F80F2000F006F8D5
:100C100000F024F8002010BD0020024070B50D4DFA
:100C200004464FF47A712878B1FBF0F00A4909685C
:100C3000B1FBF0F000F0DCFA48B9102C07D200222A
:100C40002146501E00F036F800206C6070BD012077
:100C500070BD00000C000020180000200C4808B5F2
:100C6000816941F001018161816901F00101009117
:100C7000C16941F08051C161C06900F080500090AD
:100C80000448416821F0E06141F00071416008BD15
:100C90000010024000000140002809DB00F01F02A4
:100CA000012191404009800000F1E020C0F80011CE
:100CB00070470000F0B40E4B1B680C46C3F30223D0
:100CC000C3F10705042D00D90425191D072901D2F8
:100CD000002300E0DB1E012606FA05F1491E214033
:100CE00099409E40761E16403143F0BC01F07EBE16
:100CF0000CED00E0064900F0070208684FF6FF031C
:100D0000184040EA0220034A104308607047000080
:100D10000CED00E00000FA052DE9F0470F46050054
:100D200061D0434E306800F00700B84209D2306805
:100D300020F0070038433060306800F00700B84208
:100D400051D128683B4C810712D5400703D5606814
:100D500040F4E06060602878000703D5606840F4E4
:100D6000605060606068A96820F0F000084360602F
:100D70002878C00728D06868012810D02168022888
:100D800010D0890700292EDA616821F003010143A0
:100D90006160FFF723FF804641F288390DE021684A
:100DA0008903EFE78901EDE7FFF718FFA0EB0801E2
:100DB000494502D90320BDE8F0876068696800F002
:100DC0000C00B0EB810FEFD1306800F00700B842A3
:100DD0000BD9306820F0070038433060306800F0ED
:100DE0000700B84201D00120E5E72878400705D583
:100DF0006068E96820F4E0600843606028780007D4
:100E000006D56068296920F4605040EAC10060603E
:100E100000F038F86168084AC1F30311515CC8401A
:100E20000649086006480068FFF7F8FE0020C2E7A0
:100E30000020024000100240A635000818000020E3
:100E4000100000200448054900684968044AC1F3BD
:100E50000221515CC8407047180000200010024079
:100E6000B63500080448054900684968044AC1F3DA
:100E7000C221515CC8407047180000200010024099
:100E8000B63500080E4A51680E4801F00C03042BD9
:100E900011D0082B0FD10C48C1F38343C903C05CA8
:100EA0000AD55168084AC1F34041921E515C054A77
:100EB0005043B0FBF1F070470449484370470000CD
:100EC0000010024000127A009635000800093D002B
:100ED0002DE9F84F040070D02078C04DC00749D0EC
:100EE0006868C0F38100012807D06868C0F38100FA
:100EF000022809D16868C00306D52868800339D55F
:100F000060680028E7D035E06068B0F5803F0BD01E
:100F100010B1B0F5A02F11D0286820F480302860DF
:100F2000286820F4802002E0286840F4803028609F
:100F3000606890B1FFF752FE06460AE0286840F468
:100F400080202860F0E700BFFFF748FE801B642880
:100F500073D828688003F7D50CE0FFF73FFE0646FC
:100F600005E000BFFFF73AFE801B6428F0D8286830
:100F70008003F7D420789A4E80074FF001094FF094
:100F8000000839D5686810F00C0F07D06868C0F306
:100F90008100022809D16868C00306D42868800748
:100FA00014D52069012808D110E02069B0B1C6F835
:100FB0000090FFF713FE074605E00AE1FFF70EFE7B
:100FC000C01B0228C4D828688007F7D52868616943
:100FD00020F0F80040EAC10028600DE0C6F800806B
:100FE000FFF7FCFD074604E0FFF7F8FDC01B0228F1
:100FF00023D828688007F7D4207800072CD57948B3
:10100000A169D9B1C0F80090FFF7E8FD074604E0F8
:10101000FFF7E4FDC01B02280FD8686A8007F7D5E8
:1010200071484FF4FA510068B0FBF1F0009000BF36
:101030000098411E0091FAD20EE080E0C0F80080D6
:10104000FFF7CCFD074604E0FFF7C8FDC01B0228F0
:1010500075D8686A8007F7D42078400760D5E869BA
:101060000027C00008D4E86940F08050E861E869D2
:10107000012700F0805000905C480168C90513D436
:101080000168834641F480710160FFF7A7FD824645
:1010900006E000BFFFF7A2FDA0EB0A0064284ED8CF
:1010A000DBF80000C005F5D5E06801280AD008B1DA
:1010B000052813D0286A20F001002862286A20F051
:1010C000040002E0286A40F001002862E06841F272
:1010D000883B98B1FFF782FD82460BE0286A40F01A
:1010E00004002862EEE700BFFFF778FDA0EB0A01DD
:1010F00059455AD8286A8007F6D50CE0FFF76EFDEF
:10110000824605E0FFF76AFDA0EB0A0159454CD87D
:10111000286A8007F6D41FB1E86920F08050E861A2
:10112000E06988B36968C1F38101022944D00228CB
:10113000C6F8608004D0FFF751FD044638E034E083
:10114000FFF74CFD074604E0FFF748FDC01B0228EF
:101150002BD828688001F7D4206AB0F5803F05D1EC
:101160006868A16820F4003008436860D4E9080189
:101170000843696821F4741108436860C6F86090F8
:10118000FFF72CFD044606E025E000BFFFF726FD33
:10119000001B022809D828688001F7D51BE000BF92
:1011A000FFF71CFD001B022802D90320BDE8F88FC1
:1011B00028688001F4D40EE00128F7D06868226A1C
:1011C00000F48031914204D1616A00F470108842C9
:1011D00001D00120EAE70020E8E70000001002400B
:1011E000000042428004424218000020007000408B
:1011F00010B5401EB0F1807F01D3012010BD4FF02B
:10120000E02460610F21601701F0F0FB0020A06175
:1012100007202061002010BD10B590F83C20012A65
:1012200022D0012280F83C20CA688C6822F44072E7
:1012300022434C6822F4806222430C6822F400624C
:1012400022430C6922F4805222434C6922F400525A
:101250002243C969002322F480420A4301684A6498
:1012600080F83C30002010BD022010BD70B590F811
:101270003C20012A26D0012480F83C40022280F83C
:101280003D2003685A689D6822F070060A68324360
:101290005A600D4B02689A4208D0B2F1804F05D0D7
:1012A0000A4B9A4202D00A4B9A4204D1496825F06F
:1012B00080031943916080F83D40002180F83C1084
:1012C000084670BD022070BD002C014000040040A3
:1012D0000008004010B5040003D094F83D0010B1A0
:1012E00007E0012010BD002084F83C00204600F0FB
:1012F0001FF8022084F83D00211D206801F0BEF88F
:10130000012084F8460084F83E0084F83F0084F809
:10131000400084F8410084F8420084F8430084F8D7
:10132000440084F8450084F83D00002010BD000012
:1013300008B5124A01681248914207D1816941F407
:1013400000618161806900F4006014E0B1F1804FB8
:101350000AD00C4A91420FD1C16941F00201C1612A
:10136000C06900F0020006E0C16941F00101C161FD
:10137000C06900F00100009008BD0000002C014091
:10138000001002400004004090F83D10012901D0F7
:1013900001207047022180F83D1000680B49884207
:1013A00008D0B0F1804F05D00949884202D00949E0
:1013B000884204D1816801F00701062903D0016841
:1013C00041F001010160002070470000002C014045
:1013D000000400400008004001680A6A41F211134D
:1013E0001A4207D10A6A9B101A4203D10A6822F0F6
:1013F00001020A60012180F83D100020704770B59D
:10140000044690F83C000025012817D0012684F8F6
:101410003C60022084F83D002068826822F0770258
:1014200022F47F4282600868502838D00DDC2028E2
:101430004FD005DC90B3102811D14AE0022070BDD6
:10144000302846D040280AD13BE060282FD07028B1
:101450000DD0B0F5805F03D0B0F5005F12D001254C
:1014600084F83D60002084F83C00284670BDCB68BD
:10147000D1E90121206801F04AF82068816841F033
:10148000770109E0CB68D1E90121206801F03FF83C
:101490002068816841F480418160E1E719E0CA6811
:1014A0004968206801F0E8F85021206806E0CA6821
:1014B0004968206801F0F1F86021206801F031F8F6
:1014C000CEE7CA684968206801F0D6F84021206854
:1014D000F4E7226801461046F0E7000000B585B049
:1014E00000210091019102910391154B026815486A
:1014F00002219A420FD1826942F00402826180691E
:10150000039100F0040004904FF41060CDE9000155
:1015100069460D4810E00D4B9A420FD1826942F0A6
:10152000080282618069039100F0080004900120A4
:10153000CDE9000169460648FFF756FA05B000BD3F
:10154000002C01400010024000080140000400404F
:10155000000C014070B5044690F83C0000260D4692
:1015600001280FD0012084F83C006AB1042A1DD064
:10157000082A2FD00C2A3FD00126002084F83C00F6
:10158000304670BD022070BD206800F0D3FF206897
:10159000816941F0080181612068816921F00401BD
:1015A0008161206881692A69114311E0206800F097
:1015B000E9FF2068816941F40061816120688169E7
:1015C00021F480618161206881692A6941EA0221F0
:1015D0008161D2E7206801F001F82068C16941F01B
:1015E0000801C1612068C16921F00401C16120685E
:1015F000C1692A69114311E0206801F01BF82068D5
:10160000C16941F40061C1612068C16921F4806150
:10161000C1612068C1692A6941EA0221C161ACE760
:1016200010B5040003D094F83D0010B107E001208C
:1016300010BD002084F83C00204600F01EF8022077
:1016400084F83D00211D206800F018FF012084F877
:10165000460084F83E0084F83F0084F8400084F897
:10166000410084F8420084F8430084F8440084F880
:10167000450084F83D00002010BD704710B50446B9
:10168000022249B104290ED0082913D094F8410050
:10169000012816D0012010BD94F83E000128F9D190
:1016A00084F83E200FE094F83F000128F2D184F83E
:1016B0003F2008E094F840000128EBD184F8402056
:1016C00001E084F841200122206800F013FF0F4957
:1016D0002068884203D1426C42F400424264206890
:1016E000884208D0B0F1804F05D00949884202D025
:1016F0000849884204D1816801F00701062903D016
:10170000016841F001010160002010BD002C014082
:10171000000400400008004070477047F8B50168B9
:1017200004460868CA684B6910F00F0F4FF00005B7
:1017300059D003F0010602F49077374365D0C10712
:1017400005D0D10503D5616C41F001016164410709
:1017500005D5D90703D0616C41F0020161648107AE
:1017600005D5D90703D0616C41F00401616401071C
:1017700007D502F02001314303D0616C41F008012C
:101780006164616C00293AD0800604D5900602D5C8
:10179000204600F0F2FF20684069616CC0F38010C1
:1017A000090700D460B3204600F0C0FF20684069FC
:1017B000400621D52068143050E8001F21F0400178
:1017C00040E80012002AF5D1E06BA8B16D494163F1
:1017D000E06BFFF7ABF8002811D0E06B416B01B074
:1017E000BDE8F040084783060FD593060DD5204687
:1017F000BDE8F84000F0C1BF2046FFF78EFFF8BDFE
:101800002046FFF78AFF6564F8BD266B2023012E72
:101810007CD1C6067AD5D60678D508684868009087
:1018200048694FF00206400640D5E16B0868406801
:101830000004000CE8D0A28D8242E5D9E0858869D9
:1018400020282DD020680C3050E8001F21F4807132
:1018500040E80012002AF5D12068143050E8001F3B
:1018600021F0010140E80012002AF5D1206814306F
:1018700050E8001F21F0400140E80012002AF5D195
:1018800084F84230256320680C3050E8001F21F0B6
:10189000100140E80012002AF5D1E06BFFF722F8B2
:1018A0006663A08DE18D401A81B22AE0A08DE18DA2
:1018B000401A81B2E08D0028A6D00029A4D0226869
:1018C0000C3252E8000F20F4907042E80007002F1D
:1018D000F5D12068143050E8002F22F0010240E8D2
:1018E0000027002FF5D184F84230256320680C30A2
:1018F00050E8002F22F0100240E80023002BF5D121
:1019000066632046FFF708FFF8BDFFE705062BD505
:10191000150629D594F841002128F5D1A068B0F525
:10192000805F01D12069B0B1206A411C2162216829
:1019300000784860E08C401E0004000CE084E3D195
:101940002068C16821F08001C1602068C16841F051
:101950004001C160D8E7206A0088C0F308004860F1
:10196000206A801C2062E5E74006CDD55006CBD525
:10197000CA68204622F04002CA6084F8413000F074
:10198000AFF8C1E71D27000870B5040004D094F833
:101990004100002510B106E0012070BD84F84050E0
:1019A000204600F023F8242084F841002068C16814
:1019B00021F40051C160204600F040FF2068016919
:1019C00021F4904101612068416921F02A014161BF
:1019D0002068C16841F40051C1606564202084F82A
:1019E000410084F842006563002070BD30B585B0C9
:1019F00000240094019402940394006818498842DA
:101A00002CD11848816941F480418161816901F4D8
:101A100080410491816941F0040181618069124D26
:101A200000F0040004904FF4007000900220019038
:101A30000320039069462846FEF7D6FF2815CDE916
:101A40000004694628460294FEF7CEFF00221146A4
:101A50002520FFF72FF92520FFF71EF905B030BD2F
:101A600000380140001002400008014090F8423068
:101A7000202B01D00220704721B11AB1002303634B
:101A800000F038BF01207047134910B5884221D1BA
:101A9000124801224178A1F13003072B0FDB3729CF
:101AA00004D0382904D0392904D005E0002102E00F
:101AB000027001E00221017000F0E2F902E0017819
:101AC00001B9827005490122BDE81040491C024855
:101AD000FFF7CCBF10BD0000100100200000002067
:101AE0007047FEE770B501220E4D5402214628468C
:101AF000FFF76FF80122160231462846FFF769F812
:101B000000F048F8002221462846FFF762F800F06E
:101B100041F8002231462846FFF75BF8BDE87040E7
:101B200000F038B8000C014070B50B4D4FF4007454
:101B3000002221462846FFF74CF8012211022846D0
:101B4000FFF747F800F026F821462846BDE8704028
:101B50000122FFF73EB80000000C014070B50C4CAC
:101B6000012251022046FFF734F800F013F8012259
:101B7000150229462046FFF72CF800F00BF800224A
:101B800029462046FFF725F8BDE8704000F002B86E
:101B9000000C01400320401EC0B2FCD27047000080
:101BA0002DE9F04186B000242E480094019402945F
:101BB0000394816941F020018161816901F0200174
:101BC0000491816941F004018161816901F004019E
:101BD0000491816941F0080181618069224F00F020
:101BE00008000490002201213846FEF7F2FFDFF8DA
:101BF0007C8001224FF450414046FEF7EAFF00226C
:101C000079144046FEF7E5FF01250226039600956C
:101C1000CDE9015469463846FEF7E6FECDE9006499
:101C2000694638460296FEF7DFFED8208DE831007F
:101C300069463846FEF7D8FE2020CDE90004694603
:101C400038460294FEF7D0FE4FF47040CDE900050F
:101C5000CDE9024669464046FEF7C6FE06B0BDE83D
:101C6000F08100000010024000080140000C01401B
:101C700010B596B000240F941094119412941394FC
:101C80001C2168461494FEF764FA202107A8FEF789
:101C900060FA2C482A4901604721C0E901146321F8
:101CA000C0E9031444618461FFF714FB08B1FEF737
:101CB00017FE4FF480500F900FA92248FFF79FFBAB
:101CC00008B1FEF70DFE1F48FFF7AAFC08B1FEF7AA
:101CD00007FE139413A91B481494FFF7C7FA08B121
:101CE000FEF7FEFD6020CDE9000402940394049405
:101CF00005940022694613480694FFF72BFC08B1AF
:101D0000FEF7EEFD0C2269460E48FFF723FC08B1F2
:101D1000FEF7E6FD0794089409944FF400500A94E6
:101D2000CDE90B4007A907480E94FFF775FA08B1F3
:101D3000FEF7D6FD0348FFF7D1FB16B010BD00003B
:101D4000002C01403800002010B586B00024164851
:101D5000009401940294039404944FF080410594FC
:101D600001604721C0E901144FF6FF71C0E9031477
:101D70008461FFF7AFFA08B1FEF7B2FD4FF480506F
:101D8000009069460848FFF73AFB08B1FEF7A8FD46
:101D9000049404A904480594FFF768FA002801D0C8
:101DA000FEF79EFD06B010BD8000002010B58EB07D
:101DB00000240794089409940A940B941C21684603
:101DC0000C94FEF7C6F91E481C4901604721C0E982
:101DD000011444F61F61C0E903148461FFF77AFA25
:101DE00008B1FEF77DFD4FF48050079007A9144815
:101DF000FFF705FB08B1FEF773FD1148FFF710FC74
:101E000008B1FEF76DFD0B940BA90D480C94FFF77C
:101E10002DFA08B1FEF764FD6020CDE900040294BC
:101E20000822694606480494FFF794FB08B1FEF7C0
:101E300057FD0348FFF752FB0EB010BD00040040F1
:101E4000C80000200C4810B50A4901604FF4165133
:101E50004160002181600C22C160C0E904128161EF
:101E6000C161FFF791FD002803D0BDE81040FEF7E7
:101E700037BD10BD0038014010010020FEE7FEE72D
:101E800030B40021084B0A465FF0000003EBC004A9
:101E9000401CC0B262548028F8D3491CC9B208293A
:101EA000F2D330BC00F0A4B85801002030B5CC0803
:101EB00001F0070301259D40EBB2064D05EBC0057F
:101EC000C808285C0AB1184302E063EA0000C04376
:101ED000285530BD5801002000B585B00020029083
:101EE0004148816941F0080181618069694600F0DB
:101EF000080004904FF440700090112001900320DE
:101F000003903A48FEF770FDC820FEF75BFD002104
:101F1000AE2000F0BBF90021084600F0B7F900211F
:101F2000102000F0B3F90021402000F0AFF90021AB
:101F3000812000F0ABF90021CF2000F0A7F90021AB
:101F4000A12000F0A3F90021C82000F09FF9002192
:101F5000A62000F09BF90021A82000F097F90021AD
:101F60003F2000F093F90021D32000F08FF90021E9
:101F7000084600F08BF90021D52000F087F90021F8
:101F8000802000F083F90021D92000F07FF90021A2
:101F9000F12000F07BF90021DA2000F077F9002130
:101FA000122000F073F90021DB2000F06FF900210E
:101FB000302000F06BF90021202000F067F90021AB
:101FC000022000F063F900218D2000F05FF900216C
:101FD000142000F05BF9FFF753FF0021AF2000F061
:101FE00055F905B000BD000000100240000C014092
:101FF00070B5184E002400BF04F1B000C0B200213B
:1020000000F044F90021084600F040F900211020BA
:1020100000F03CF9FFF766FD782000F055F9FFF776
:102020009DFD402000F050F9FFF798FD5FF000059E
:1020300006EBC500005D00F047F9FFF78FFD6D1C52
:10204000EDB2802DF4D3FFF76FFD641CE4B2082CD1
:10205000D2D370BD580100203EB5012400211023C9
:1020600028A20846009400F0F3F8284D287820B103
:10207000012818D0022827D040E0102324A20021F4
:102080002820009400F0E4F86A78A2F130000928D2
:1020900004D822A1244800F095FC28E023A122487E
:1020A00000F090FC23E0102323A2002128200094BC
:1020B00000F0CEF8A868FEF738F902460B4621A1D9
:1020C000194800F07FFC12E0102321A200212820F3
:1020D000009400F0BDF8204881780379C2788DE83B
:1020E0000E00437802781DA10F4800F06BFC10230E
:1020F0000D4A19460020009400F0AAF8BDE83E40C1
:10210000FFF776BF6D6F64653A00000000000020A5
:10211000426C7565746F6F7468000000646174616F
:102120003A256320202000002800002064617461AB
:102130003A4E756C6C0000004175746F2061766FCB
:10214000696400004469733A252E3266636D0000AD
:1021500054726163650000001C00002025642D2579
:10216000642D25642D25642D256400002DE9FC4F88
:102170001C460E4682468B460190082B0DD0600708
:1021800000D0012000EBD40061084843C0B2814672
:10219000203AD0B2009000204BE00620F7E7082C50
:1021A00013D00C2C18D0102C1BD0182C44D1009814
:1021B000234900EBC00000BF01EB8001002711F8AC
:1021C0000850E80712D00B9A13E000981D4900EB65
:1021D000400001EB4001F1E700981B4900EB400093
:1021E000EAE71A49009801EB0011E7E70B9828B3DA
:1021F000002231465046FFF759FE761C7F1C6D08C1
:10220000FFB2F6B2082FDCD30AF1010000F0FF0A9A
:10221000082C0AD00199AAEB0100B0EB540F04D1AD
:102220000BF108008A4600F0FF0B08F101005E4642
:10223000C0B280464845B2D3BDE8FC8F0122D8E742
:102240004A420008BE350008E63700085A3C00083C
:102250002DE9F8411E46154688460446079F0BE0C7
:102260003346414620460097FFF780FF082E0AD0EC
:1022700004EB5600C4B26D1C2A78A2F120005E283F
:10228000EED9BDE8F881A41DE4B2F4E770B50C46C0
:102290000546FFF727FC782000F016F8FFF75EFCF4
:1022A0000CB1402000E0002000F00EF8FFF756FCD3
:1022B000284600F009F8FFF751FCBDE87040FFF731
:1022C00033BC7047704700002DE9F041124F0024E5
:1022D00005464FF40078BE15280601D5012200E01E
:1022E000002241463846FEF774FCFFF753FC0122FA
:1022F00031463846FEF76DFCFFF74CFC00223146B4
:102300003846FEF766FC6806641C050EE4B2082C2D
:10231000E2D3BDE8F0810000000C01400821014833
:10232000FFF7ACB9C800002010B50749FDF7A6FFBC
:102330000649FDF771FF0649FDF716FFFDF7E1FFBE
:1023400004490968C86310BD000034430000FA4422
:102350000000FA43C8000020FEF746BC30B58FB03D
:1023600028216846FDF7F5FE14210AA8FDF7F1FEC5
:1023700001210804CDE900100024029402250491F3
:10238000CDE907504FF4E01009906846FEF7A0FD34
:1023900008B172B6FEE70F20CDE90A054FF4806060
:1023A000CDE90C4002210AA80E94FEF7B5FC0028E6
:1023B00001D072B6FEE70FB030BD704710B50021F6
:1023C0000448FFF75BF9BDE810400C210148FFF716
:1023D00055B90000380000202DE9F0410D46254C8C
:1023E000061E4FF400414FF4804705DD01222046D0
:1023F000FEF7EFFB002210E00ADA00222046FEF78B
:10240000E8FB012239462046FEF7E3FB764208E06E
:1024100001222046FEF7DDFB012239462046FEF769
:10242000D8FB1548066041148614002D06DD4FF0D8
:1024300001022046FEF7CDFB002211E00BDA4FF03F
:1024400000022046FEF7C5FB012231462046FEF77A
:10245000C0FB6D4208E001222046FEF7BAFB0122D4
:1024600031462046FEF7B5FB03480C300560BDE859
:10247000F0810000000C0140342C0140F0B50268EE
:10248000194B1A4C1A4D4FF08047984205D0B8426C
:1024900003D0A04201D0A84203D122F070064A68BE
:1024A0003243984205D0B84203D0A04201D0A8429E
:1024B00003D122F44074CA6822434C6922F080029E
:1024C000224302608A68C2620A688262984201D12D
:1024D00009690163012141610169C90703D00169EB
:1024E00021F001010161F0BD002C01400004004019
:1024F0000008004010B501F01F030121046A994053
:102500008C430462016A9A401143016210BD10B508
:10251000846842EA032224F47F440A43224382600F
:1025200010BD826822F070020A4342F00701816008
:102530007047000030B5036A026A22F001020262AD
:102540004268846924F073050C682C4323F002056B
:102550008B682B430A4DA8420BD123F00805CB68AA
:1025600022F440722B434D6923F0040315438A691A
:102570002A434260846149684163036230BD0000C0
:10258000002C014030B5026A036A23F01003036295
:10259000436884690D6824F4E64444EA05248D68A0
:1025A00022F0200242EA05120B4DA8420ED1CD685E
:1025B00022F0800242EA05124D6923F4406343EAA7
:1025C00085038D6922F0400243EA850343608461FC
:1025D00049688163026230BD002C014030B5036A56
:1025E000026A22F4807202624268C46923F40073B2
:1025F00024F073050C682C438D6843EA05230C4DC9
:10260000A8420ED1CD6823F4006343EA05234D6947
:1026100022F4405242EA05128D6923F4806342EAB3
:1026200005124260C4614968C163036230BD0000A5
:10263000002C014030B5046A026A22F48052026222
:102640004268C3690D6823F4E64343EA05238D68B5
:1026500024F4005444EA0534064DA84204D14D69DF
:1026600022F4804242EA85124260C36149680164F3
:10267000046230BD002C014010B5036A046A24F0E6
:1026800001040462846924F0F00444EA021423F093
:102690000A020A438461026210BD10B5036A046A2B
:1026A00024F010040462846923F0A00324F470442D
:1026B00044EA023243EA01118261016210BD000066
:1026C00070B5144E002508213046FEF77DFA124CF5
:1026D000102120703046FEF777FA607020213046D6
:1026E000FEF772FAA07040213046FEF76DFAE070F6
:1026F00080213046FEF768FA20710021C1F1040202
:10270000605C90402843491CC9B2C5B20529F5D385
:10271000284670BD000801401C00002010B5406A2A
:102720000021C185C184FEF7F8FF10BD01680C319E
:1027300051E8002F22F4907241E80023002BF5D1DC
:102740000168143151E8002F22F0010241E8002312
:10275000002BF5D1016B012909D101680C3151E839
:10276000002F22F0100241E80023002BF5D1202198
:1027700080F8421000210163704708B590F84210BC
:10278000222901D0022008BD82684FF480539A426A
:1027900001D1016921B1816A9A421BD04AB10AE094
:1027A0000268816A5268C2F308020A80816A891C41
:1027B00008E0026972B10268526802F07F020A7092
:1027C000816A491C8162C18D491E0904090CC185B9
:1027D00003D01BE002685268F1E70168CA6822F082
:1027E0002002CA600168CA6822F48072CA60016867
:1027F0004A6922F001024A61202180F8421000213A
:102800004163026B012A03D0FFF73EF9002008BDA7
:10281000016301680C3151E8002F22F0100241E8F9
:102820000023002BF5D101680A68D20602D50A6898
:1028300049680091818DFEF76FFFE7E770B50446A8
:1028400000680169E26821F4405111430161216986
:10285000A0680843616908432168CA6841F20C63B3
:102860009A430243CA6020684169A26921F4407119
:10287000114341611E492068884202D1FEF7F2FAF5
:1028800001E0FEF7DFFA00EBC00101EB0012606827
:1028900064218000B2FBF0F3B3FBF1F36FF0180694
:1028A0007343B2FBF0F5B2FBF0F605EB8305322380
:1028B00003EB0515B5FBF1F5B6FBF1F605F0F005F8
:1028C00005EB0615B2FBF0F6B2FBF0F0B0FBF1F051
:1028D0006FF01802504306EB800003EB0010B0FBD2
:1028E000F1F0216800F00F002844886070BD0000FE
:1028F0000038014081628285C28500214164222125
:1029000080F84210016921B10168CA6842F48072FE
:10291000CA6001684A6942F001024A610068C16800
:1029200041F02001C1600020704700000148FEF71F
:10293000F5BE0000100100202DE9F04100261C4CDE
:102940001C4F3546B046012211462046FEF741F99C
:10295000142000F0C9FC002201212046FEF739F9BD
:1029600002212046FEF730F90028F9D03968C1F875
:1029700024801048FEF708FD02212046FEF724F9C6
:102980000128F9D00B48FEF727FD3868406A6D1C16
:10299000304486B2052DD6DB3046FDF7ADFC064946
:1029A0000968FDF739FCBDE8F0410449FDF734BC86
:1029B000000801408000002024000020ACC527371B
:1029C000FEE700000FB4084B10B504A902AA039853
:1029D00000F0EEF8044602A9002000F080FC20463A
:1029E00010BC5DF814FB0000DF3200080907090E77
:1029F000002804DB00F1E02080F80014704700F0AC
:102A00000F0000F1E02080F8141D704702E008C8B4
:102A1000121F08C1002AFAD170477047002001E058
:102A200001C1121F002AFBD1704700002DE9FF5F92
:102A300082B00021DDE90430020DDDF840B003432F
:102A400018D044F61050A2F2FF32424315141198E8
:102A500001281FD0A5EB0B00401C5FEA000A4FF0D5
:102A600000064E4FDFF83891B046504615D5CAF1F2
:102A7000000413E0119801244AA3012801D16FEA50
:102A80000B010298119AC0E90031C0E9024206B078
:102A9000BDE8F09FCBF10000DFE704460021404A8B
:102AA000491842EB0450CDE9001012E0E00707D0CE
:102AB00032463B4640464946FDF76FFD8046894613
:102AC00032463B4610461946FDF767FD06460F465F
:102AD0006410002CEAD1DDE90401DDE90023BAF13C
:102AE000000F06DAFDF759FD42464B46FDF755FD4E
:102AF00005E0FDF7C4FD42464B46FDF7C0FD044628
:102B00000E460022284BFDF741FE03D84FF0FF3060
:102B1000014607E00022254B20463146FDF796FC92
:102B2000FDF71CFE102409E0002C0ADB0A2200231A
:102B3000FDF724FC039B30321A55641E50EA010253
:102B4000F2D1641C039AC4F111031444119A012AAE
:102B500003D0012208430DD10AE0084304D000202D
:102B60004FF0110B119072E7A3EB0B056D1E0DE0FA
:102B70005B4504DD4FF0000205F1010504E003DAD6
:102B80004FF00002A5F10105002AECD0029811993E
:102B9000C0E90231C0E9004579E7000000001440B7
:102BA0000000F03F300000000000F0430000E03F74
:102BB0002DE9FF4F95B09B468946064600250FE25A
:102BC000252877D100242746F84A0121059400E002
:102BD000044316F8013F203B01FA03F01042F7D1FD
:102BE00030782A2811D06FF02F033078A0F130020E
:102BF000092A16D8059A44F0020402EB820203EB7C
:102C000042021044761C0590EFE759F8042B059218
:102C1000002A03DA504244F40054059044F00204C0
:102C2000761C30782E2816D116F8010F44F00404D3
:102C30002A280DD06FF02F023078A0F13003092B35
:102C400009D807EB870302EB4303C718761CF3E7A9
:102C500059F8047B761C30786C280FD006DC4C28A1
:102C600017D068280DD06A2814D104E0742810D039
:102C70007A280FD10DE044F400140AE044F48014E3
:102C800001E044F440147278824202D104F58014C9
:102C9000761C761C307866280BD013DC582877D049
:102CA00009DC002875D04528F6D04628F4D04728FE
:102CB0001AD19DE118E0632835D0642879D06528C1
:102CC00012D195E1702873D008DC6728F1D069280B
:102CD0006FD06E280DD06F2806D1B5E073282CD0A8
:102CE000752875D0782874D05A46179990476D1C6E
:102CF00075E1C4F30250022809D003280DD0D9F899
:102D0000001004280DD00D6009F1040967E1D9F81D
:102D10000010EA17C1E90052F6E7D9F800100D805B
:102D2000F2E70D70F0E719F8041B8DF80010002091
:102D30008DF80100EA46012003E059F804AB4FF09A
:102D4000FF3061074FF0000102D40DE008F10101EE
:102D50008846B9420FDA8045F8DB1AF808100029D6
:102D6000F4D108E008F1010188468142FADB1AF843
:102D700008100029F6D105985B46A0EB080721460C
:102D80003846179A00F094FA284400EB080507E04B
:102D90004DE029E10DE01AF8010B5A4617999047CA
:102DA000B8F10108F7D25B4621463846179A13E17D
:102DB00042E00A220092C4F302524FF0000A022AB3
:102DC00008D059F804CB032A4FEAEC710AD00DE081
:102DD00029E02AE009F1070121F00702F2E802C127
:102DE000914609E00FFA8CFC4FEAEC71042A03D1FA
:102DF0004FFA8CFC4FEAEC71002907DA0A460021F1
:102E0000DCF1000C61EB02012D2202E0220504D569
:102E10002B228DF80420012203E0E20701D02022BA
:102E2000F7E7904659E00A2102E010220DE0102158
:102E30004FF0000A00910BE010224FF0000A44F01E
:102E400004040827009203E008224FF0000A0092D1
:102E5000C4F30252022A05D059F804CB0021032AF8
:102E600008D009E009F1070121F00702F2E802C1E8
:102E7000914605E01FFA8CFC042A01D10CF0FF0CEE
:102E80004FF00008220728D5702806D0009B83F059
:102E9000100353EA0A0305D00EE040228DF8042007
:102EA000012208E05CEA010206D030228DF80420FD
:102EB0008DF8050002229046009B83F0080353EA38
:102EC0000A030AD15CEA010201D1620705D530226A
:102ED0008DF804204FF001087F1E582804D034A03C
:102EE00003900EA802900DE036A0F9E75346604625
:102EF000009AFDF743FA84460398825C0298401ECC
:102F0000029002705CEA0100F0D1029806A9081A4A
:102F100000F1200A600702D524F4803400E0012784
:102F2000574502DDA7EB0A0000E0002000EB0A0194
:102F3000009005984144401A0590E00306D45B4692
:102F40002146179A059800F0B3F90544002706E0DA
:102F500001A85A46C05D179990476D1C7F1C4745D4
:102F6000F6DBE0030CD55B462146179A059800F086
:102F70009FF9054404E030205A46179990476D1C8C
:102F80000099481E00900029F5DC08E0029802999B
:102F90005A460078491C0291179990476D1CBAF166
:102FA0000001AAF1010AF1DC65E100000928010035
:102FB00030313233343536373839616263646566AF
:102FC0000000000030313233343536373839414271
:102FD000434445460000000000F058F90544761CC3
:102FE000307800287FF4ECAD19B02846BDE8F08FAA
:102FF000620700D4062709F1070222F0070CFCE85B
:103000000223E14603F000485FEA080C02D00FF209
:10301000702C0DE05FEA045C02D50FF2682C07E02B
:103020005FEAC47C02D00FF2602C01E0AFF2700CBA
:103030004FF0FF3823F00043CDF850C065280CD086
:1030400006DC452809D046281DD047283DD13DE063
:10305000662818D067287ED138E00021112F01DBC7
:10306000112000E0781CCDE9000106A90EA8FFF7A9
:10307000DDFCDDE90F010E9A03910021009207F1BA
:10308000010A04914DE04FF000400097CDE9011096
:1030900006A90EA8FFF7CAFCDDE90F0203920E9BFA
:1030A00011990022DDF80CA00093049211B9791C4B
:1030B00000EB010AB7EB0A0004D4C0F1FF3007F1BE
:1030C000010A0490AAEB0700019044E0012F00DA06
:1030D00001270021112F01DD112000E03846CDE944
:1030E000000106A90EA8FFF7A1FCDDE90F010E9A69
:1030F0000391002104910092BA4621070CD4039950
:10310000514500DA8A46BAF1010F05DD009AAAF1AD
:103110000101515C302908D0B84202DA10F1040FE5
:1031200006DA0121CDE9011015E0AAF10101E9E774
:10313000002805DC049901440491AAEB000102E097
:10314000411C514500DD8A460499401A401C0190FB
:103150004FF000400290200704D40198504501DB55
:10316000CDF8048000208DF84F0002980DF14F0734
:10317000B0F1004F25D02B200E9002984FF002089E
:1031800000280CDA404202902D200E9007E00A2120
:103190000298FDF7DDF83031029007F8011DB8F113
:1031A0000001A8F10108F2DC02980028EFD1791E95
:1031B0000E980870307800F0200040F0450007F8C5
:1031C000020D12A8C01B00F107081498007800B186
:1031D000012000EB0A01019801EBE07105984144E0
:1031E000401A401E0590E00306D45B462146179A1C
:1031F000059800F05DF805441498007818B15A4617
:10320000179990476D1CE00324D55B462146179A19
:10321000059800F04DF805441CE00498002807DBF1
:10322000DDE90301884203DD0098405C179901E065
:10323000179930205A469047049805F10105401C23
:1032400004900198401E019004D12E205A461799EF
:1032500090476D1CBAF10001AAF1010ADDDC05E01E
:1032600017F8010B5A46179990476D1CB8F10001E9
:10327000A8F10108F4DC5B462146179A0598ABE6F5
:103280002D0000002B000000200000002DE9F0417F
:10329000044600251E461746880404D405E0394636
:1032A0002020B0476D1C641EF9D52846BDE8F0818A
:1032B0002DE9F041044600251E469046C80301D57D
:1032C000302700E02027880404D505E04146384631
:1032D000B0476D1C641EF9D52846BDE8F0810A6828
:1032E000531C0B601070704770B5084C05460020E9
:1032F000216848622046FEF747F82068416AA942E3
:10330000FCD3BDE870400148FEF766B8800000209D
:10331000FDF772FCFFF722F8FEF742FCFEF792FD84
:10332000FEF7A6FCFEF710FDFEF740FD01229349D3
:103330009348FEF79BFBFEF7CFFDFFF73FF8FEF744
:10334000EDFF9048FEF7F0FF8C4C0225641E6FF0F5
:1033500013082570DFF830924FF4C87A8B4F00269F
:103360004FF0010BFEF778FE207898B1012839D094
:103370000228F7D1FFF7A4F9E07019287AD07ADC97
:103380000F2879D079DC032878D00528FCD00728CD
:1033900075D1B5E0A0780028E4D0A6706078302818
:1033A0000ED031280ED0322811D0332811D0342835
:1033B00012D0352813D03628D4D10021084603E096
:1033C00014210DE040464146FFF706F8CAE73221D6
:1033D00006E014213220F7E714214046F4E7414685
:1033E0001420F1E7207910B101285BD150E0FFF7FC
:1033F000A3FAA060B84202DB0F21084637E00021A3
:103400000846FEF7E9FF6248FEF78EFF5046FDF7DB
:10341000D9FAFFF791FAA060484508DB5948FEF752
:1034200083FF5046FDF7CEFA2821484217E00021DD
:103430000846FEF7D1FF0020FEF776FF5046FDF765
:10344000C1FAFFF779FAA06048454E4818DBFEF74D
:103450006BFF5046FDF7B6FA6FF027012820FEF704
:10346000BBFF4FF4FA70FDF7ADFA00210846FEF7F6
:10347000B3FF17E031E01EE050E015E070E060E0DF
:10348000FEF752FF5046FDF79DFA84F804B009E0BC
:1034900000210846FEF7A0FFFFF74EFAA060B842F1
:1034A00000DB2671642058E013280FD017281AD0AB
:1034B000182846D15BE01A38062842D2DFE800F02F
:1034C00057032719353C0F21084641E028210020E9
:1034D000FEF782FF84F805B03CE000212820FEF7CB
:1034E0007BFF657136E032210020FEF775FF032077
:1034F00004E000213220FEF76FFF0420607129E014
:1035000032216FF00E00FEF767FF0520F6E76FF03F
:103510000E013220FEF760FF0620EFE732216FF048
:103520001800FEF759FF0720E8E76FF01801322076
:10353000FEF752FF0820E1E7A079022803D0012816
:1035400004D0002103E000211E2001E01E21002004
:10355000FEF742FF6079A0711420FDF733FA01E70E
:1035600028216FF01D00FEF737FF0920C6E76FF036
:103570001D012820FEF730FF0A20BFE701000020D0
:10358000100100200000B442000070410000A04083
:1035900000003443010202030405060708090A0B70
:1035A0000C0D0E0F101000000000000000000102C2
:1035B00003040607080900000000010203040000DC
:1035C000000000000000002F0000000007000700BE
:1035D00000147F147F1400242A7F2A1200626408DA
:1035E0001323003649552250000005030000000057
:1035F0001C224100000041221C000014083E081457
:103600000008083E0808000000A060000008080844
:103610000808000060600000002010080402003E5E
:103620005149453E0000427F4000004261514946F9
:10363000002141454B31001814127F1000274545E9
:103640004539003C4A4949300001710905030036FB
:103650004949493600064949291E0000363600000E
:103660000000563600000008142241000014141413
:10367000141400004122140800020151090600320E
:103680004959513E007C1211127C007F494949364C
:10369000003E41414122007F4141221C007F4949B7
:1036A0004941007F09090901003E4149497A007FEB
:1036B0000808087F0000417F4100002040413F0191
:1036C000007F08142241007F40404040007F020CF0
:1036D000027F007F0408107F003E4141413E007F91
:1036E00009090906003E4151215E007F091929465A
:1036F0000046494949310001017F0101003F404036
:10370000403F001F2040201F003F4038403F0063E3
:103710001408146300070870080700615149454305
:1037200000007F41410000552A552A5500004141C3
:103730007F000004020102040040404040400000BD
:1037400001020400002054545478007F4844443857
:1037500000384444442000384444487F00385454DE
:10376000541800087E0901020018A4A4A47C007F5C
:10377000080404780000447D4000004080847D00FF
:10378000007F102844000000417F4000007C0418A6
:103790000478007C0804047800384444443800FC71
:1037A000242424180018242418FC007C080404088D
:1037B00000485454542000043F444020003C404002
:1037C000207C001C2040201C003C4030403C004439
:1037D00028102844001CA0A0A07C004464544C4441
:1037E0001414141414140000000000000000000061
:1037F00000000000FC000000000002000000000CBF
:10380000020C020000000000000090D0BCD0BC9070
:103810000003000300001824FE448C00030207028A
:1038200001001824D8B04C80000300010201C03808
:10383000E438E00001020201020208060000000074
:10384000000000000000000000F804020000000179
:103850000204000204F8000000040201000090606D
:10386000F86090000000010000002020FC202000F3
:103870000000010000000000000000000806000039
:103880000000202020202000000000000000000098
:10389000000000000002000000000080601C020028
:1038A000040300000000F8040404F800010202020E
:1038B00001000008FC000000000203020000188460
:1038C0004424180003020202020008042424D80041
:1038D00001020202010040B088FC800000000003E9
:1038E00002003C242424C400010202020100F82446
:1038F000242CC0000102020201000C04E41C04009C
:10390000000003000000D8242424D8000102020291
:10391000010038444444F8000003020201000000A2
:103920001000000000000200000000002000000065
:103930000000060000000020508804020000000083
:1039400001029090909090000000000000000002A2
:10395000048850200002010000001804C42418004C
:10396000000002000000F804E494F80001020202E2
:10397000020000E09CF0800002030000030204FC4F
:103980002424D800020302020100F80404040C00FD
:1039900001020202010004FC0404F8000203020216
:1039A000010004FC24740C0002030202030004FC66
:1039B00024740C00020302000000F0080444CC4010
:1039C00000010202010004FC2020FC0402030000AC
:1039D00003020404FC0404000202030202000004C7
:1039E00004FC040406040403000004FC24D00C04BA
:1039F00002030200030204FC0400000002030202AE
:103A00000203FC3CC03CFC0003000300030004FC78
:103A100030C4FC04020302000300F8040404F800AC
:103A200001020202010004FC242418000203020027
:103A30000000F8848404F80001020207050004FC79
:103A400024649800020302000302182424448C001A
:103A50000302020201000C04FC040C000002030239
:103A6000000004FC0000FC04000102020100047CD0
:103A700080E01C040000030000001CE03CE01C008F
:103A8000000300030000049C609C04000203000388
:103A90000200041CE01C04000002030200000C846D
:103AA000641C04000203020203000000FE02020084
:103AB000000007040400000E30C0000000000001F8
:103AC0000200000202FE00000004040700000004DF
:103AD00002040000000000000000000000000000E0
:103AE00008080808080800000200000000000000A4
:103AF00000000040A0A0C00000010202030204FC7C
:103B00002020C00000030202010000C0202060004D
:103B100000010202020000C02024FC000001020299
:103B2000030200C0A0A0C0000001020202000020A9
:103B3000F82424040002030202000040A0A0602038
:103B400000070A0A0A0404FC2020C0000203020045
:103B500003020020E4000000000203020000000055
:103B600020E4000008080807000004FC80E0202092
:103B70000203020003020404FC000000020203022C
:103B80000200E020E020C00003000300030020E06A
:103B90002020C00002030200030200C02020C00059
:103BA00000010202010020E02020C000080F0A02EC
:103BB000010000C02020E0000001020A0F0820E000
:103BC000402020000203020000000060A0A02000AE
:103BD0000002020203000020F820000000000102A1
:103BE000020020E00020E00000010202030220E0C9
:103BF000208060200000030100006080E080600001
:103C00000003000300002060806020000203000326
:103C1000020020E02080602008080701000000204A
:103C2000A0602000000203020200000020DE02006B
:103C3000000000070400000000FF00000000000F6B
:103C400000000002DE200000000407000000020166
:103C50000204040200000000000000000000000058
:103C600000000000000000000000000000F800005C
:103C70000000000000333000000000100C06100CA3
:103C80000600000000000000000040C07840C0783E
:103C90004000043F04043F040400007088FC083026
:103CA0000000001820FF211E0000F008F000E018BE
:103CB000000000211C031E211E0000F00888700077
:103CC00000001E2123241927211010160E000000C9
:103CD00000000000000000000000000000E01804E8
:103CE0000200000000071820400000020418E00055
:103CF00000000040201807000000404080F0804095
:103D000040000202010F01020200000000F000006A
:103D100000000101011F010101000000000000007E
:103D2000000080B0700000000000000000000000F3
:103D3000000000010101010101010000000000007C
:103D40000000003030000000000000000000806033
:103D50001804006018060100000000E010080810B8
:103D6000E000000F102020100F00001010F80000DD
:103D700000000020203F2020000000700808088874
:103D80007000003028242221300000300888884844
:103D900030000018202020110E000000C02010F874
:103DA000000000070424243F240000F80888880845
:103DB00008000019212020110E0000E0108888184A
:103DC0000000000F112020110E0000380808C8382C
:103DD00008000000003F000000000070880808880C
:103DE0007000001C222121221C0000E01008081095
:103DF000E0000000312222110F00000000C0C000CE
:103E000000000000003030000000000000800000D2
:103E100000000000806000000000000080402010D2
:103E200008000001020408102000404040404040CB
:103E3000400004040404040404000008102040802E
:103E40000000002010080402010000704808080863
:103E5000F0000000003036010000C030C828E81033
:103E6000E0000718272423140B000000C038E000EE
:103E70000000203C23020227382008F88888887038
:103E80000000203F202020110E00C0300808080844
:103E90003800071820202010080008F8080808102B
:103EA000E000203F202020100F0008F88888E80854
:103EB0001000203F20202320180008F88888E808F8
:103EC0001000203F200003000000C0300808083820
:103ED000000007182020221E020008F80800000831
:103EE000F808203F210101213F20000808F80808B8
:103EF00000000020203F2020000000000808F808F3
:103F00000800C08080807F00000008F888C0281862
:103F10000800203F20012638200008F80800000093
:103F20000000203F20202020300008F8F800F8F89A
:103F30000800203F003F003F200008F830C0000884
:103F4000F808203F200007183F00E010080808107C
:103F5000E0000F10202020100F0008F808080808C3
:103F6000F000203F210101010000E01008080810C6
:103F7000E0000F18242438504F0008F888888888FB
:103F80007000203F2000030C3020007088080808D3
:103F900038000038202121221C00180808F80808E1
:103FA00018000000203F2000000008F8080000086A
:103FB000F808001F202020201F000878880000C873
:103FC0003808000007380E010000F80800F8000863
:103FD000F800033C0700073C03000818688080686D
:103FE000180820302C03032C30200838C800C838AB
:103FF00008000000203F2000000010080808C83812
:1040000008002038262120201800000000FE0202AF
:1040100002000000007F40404000000C30C0000063
:104020000000000000010638C00000020202FE008D
:104030000000004040407F00000000000402020237
:10404000040000000000000000000000000000006C
:104050000000808080808080808000020204000058
:104060000000000000000000000000008080808050
:1040700000000019242222223F2008F8008080003E
:104080000000003F112020110E0000000080808001
:104090000000000E11202020110000000080808808
:1040A000F800000E112020103F200000808080804A
:1040B0000000001F222222221300008080F0888846
:1040C00088180020203F2020000000008080808091
:1040D0008000006B94949493600008F800808080C6
:1040E0000000203F210000203F2000809898000021
:1040F00000000020203F2020000000000080989851
:10410000000000C08080807F000008F800008080F0
:104110008000203F24022D302000000808F8000015
:1041200000000020203F20200000808080808080D0
:104130008000203F20003F20003F80800080808062
:104140000000203F210000203F2000008080808070
:104150000000001F202020201F00808000808000A1
:10416000000080FFA12020110E0000000080808050
:104170008000000E112020A0FF80808080008080C1
:10418000800020203F2120000100000080808080EE
:1041900080000033242424241900008080E08080E3
:1041A00000000000001F2020000080800000008030
:1041B0008000001F202020103F2080808000008091
:1041C000808000010E3008060100808000800080A1
:1041D00080800F300C030C300F0000808000808046
:1041E00080000020312E0E31200080808000008071
:1041F000808080818E701806010000808080808021
:1042000080000021302C2221300000000000807C42
:10421000020200000000003F404000000000FF00DC
:10422000000000000000FF0000000002027C80008F
:1042300000000040403F00000000000601010202B3
:104240000404000000000000000000000000000066
:10425000000000000000000000000000000000005E
:10426000000000000000000000000000000000004E
:10427000000000F0F0F0000000000000000000016D
:104280007F010000000000000000001C1C1C00005A
:10429000000000008060301C8C60301C0C000000AE
:1042A000000000000000000000000000000000000E
:1042B000000000000000000000E00000000000E03E
:1042C00000000086E69F86868686E69F86000001BF
:1042D0001F01010101011F010100000080C06020D9
:1042E000F820E0C00000000003070C18FF70E18117
:1042F00000000000070F10107F100F070000806003
:10430000206080000000E02000000F3020309F700F
:10431000DC371030C0000000100E03000718101822
:1043200007000000C02020E0C0000000000080E086
:104330001F38E88703C43C040000070F1810100B57
:10434000070D1010080000808C4C380000000000A1
:10435000000000000000000000000000000000005D
:10436000000000000000000000000000000000004D
:1043700080E0300804000000000000FEFF010000A3
:104380000000000000000000030F1820400000049F
:104390000830E0800000000000000000000001FF85
:1043A000FE0000000000004020180F030000000085
:1043B0000000000000000000C000000000000042FB
:1043C00066663C18FF183C6666420000000000006C
:1043D000030000000000000000000000800000005A
:1043E0000000001010101010FF101010101000002E
:1043F00000000000030000000000000000000000BA
:1044000000000000000000000000000000000000AC
:10441000000000808C4C380000000000000000000C
:10442000000000000000000000000010101010103C
:10443000101010101000000000000000000000002C
:10444000000000000000000000000000000000006C
:104450000000000000000000000000001C1C1C0008
:104460000000000000000000000000000000E03834
:104470000C000000000080701C03000000000060C1
:10448000380E0100000000000000000080C0602025
:104490002060C080000000FEFF010000000001FF5E
:1044A000FE000001070E181010180E070100000092
:1044B000808080C0E000000000000000000000FFDD
:1044C000FF000000000000001010101F1F1010104F
:1044D00000000080402020202060C08000000003F9
:1044E0000300804020381F070000001C1A1918180C
:1044F0001818181F00000080C020202060C0800015
:104500000000000303001010182FE78000000007D0
:104510000F10101010180F0700000000000000001E
:10452000C0E0F000000000C0B088868180FFFF80FE
:104530008000000000000010101F1F10100000007D
:10454000E060606060606060000000003F1008088C
:104550000818F0E0000000070B101010101C0F03EB
:104560000000000080C040202020E0C0000000FCCF
:10457000FF211008080818F0E0000001070C1810CF
:104580001010080F03000000C0E06060606060E091
:104590006000000003000000E018070000000000B9
:1045A0000000001F1F00000000000080C0602020ED
:1045B000202060C080000087EF2C1818303068CFB2
:1045C000830000070F0810101010180F07000000DC
:1045D000C0C020202020C0800000001F3F6040405D
:1045E000402010FFFE0000000C1C101010080F03EC
:1045F00000000000000000000000000000000000BB
:104600000000000E0E0E0000000000000000001C64
:104610001C1C000000000000000000000000000062
:10462000000000000000000C0C0000000000000072
:1046300000000058380000000000000000000000EA
:10464000008040201000000010284482010000007B
:10465000000000000000000001020408100000003B
:1046600000000000000000000000008484848484B6
:1046700084848484840000000000000000000000A6
:10468000000000001020408000000000000000003A
:1046900000000000018244281000000010080402FD
:1046A00001000000000000C020201010101030E0B9
:1046B000C0000003030000F010080C070300000016
:1046C00000001C1C1C0000000000000000C0406036
:1046D00020202040C00000FCFF01F00E03C1FE03BB
:1046E000807F0001070E081111101109040200005B
:1046F000000080E0E000000000000000807C4340FB
:10470000477FF880000010181F1000000000131FE2
:104710001C1020E0E02020202060C080000000FF6E
:10472000FF10101010182FE78000101F1F1010101E
:104730001010180F0700000080C0402020202060CB
:10474000E00000FCFF01000000000000010000018B
:10475000070E181010100804030020E0E0202020AD
:104760002040C080000000FFFF000000000001FFAB
:10477000FE00101F1F10101018080E07010020E087
:10478000E020202020202060800000FFFF1010107B
:10479000107C00000000101F1F10101010101018C7
:1047A000060020E0E020202020206060800000FF44
:1047B000FF101010107C00000100101F1F100000DF
:1047C000000000000000000080C06020202040E0C9
:1047D000000000FCFF0100004040C0C1404000015B
:1047E000070E181010100F0F000020E0E02000004E
:1047F000000020E0E02000FFFF101010101010FF5C
:10480000FF00101F1F1000000000101F1F100000ED
:10481000202020E0E020202000000000000000FF19
:10482000FF000000000000001010101F1F101010EB
:10483000000000000000202020E0E02020200000F8
:104840000000000000FFFF0000000060E0808080AA
:10485000C07F3F00000020E0E020000020A060209A
:10486000200000FFFF30187CE3C000000000101F94
:104870001F10000001131F1C181020E0E020000092
:1048800000000000000000FFFF000000000000002A
:104890000000101F1F10101010101018060020E04C
:1048A000E0E000000000E0E0E02000FF013FFEC08B
:1048B000E01E01FFFF00101F1000031F0300101F68
:1048C0001F1020E0E0C0000000000020E02000FFFA
:1048D0000003071C78E08000FF00101F100000009C
:1048E0000000030F1F00000080C060202060C08017
:1048F000000000FEFF010000000000FFFE000001BC
:10490000070E181010180C07010020E0E0202020EE
:10491000202060C0800000FFFF2020202020301FCA
:104920000F00101F1F10000000000000000000001A
:1049300080C060202060C080000000FEFF010000F9
:10494000000000FFFE000001070E1111133C7C6700
:10495000210020E0E0202020202060C0800000FF17
:10496000FF101030F0D0080F0700101F1F100000BC
:1049700000030F1C10100080C06020202020404049
:10498000E00000070F0C1818303060E08100001FB5
:104990000C0810101010180F07008060202020E075
:1049A000E020202060800100000000FFFF000000E8
:1049B000000100000000101F1F100000000020E098
:1049C000E020000000000020E02000FFFF000000C9
:1049D00000000000FF0000070F1810101010100852
:1049E00007002060E0E02000000020E060200000E0
:1049F000077FF88000807C03000000000000071F94
:104A00001C070000000020E0E02000E0E020002083
:104A1000E0200007FFF8E01FFFFCE01F000000009F
:104A2000031F0300011F03000000002060E0A0003E
:104A30000020E0602000000000038F7CF8C6010029
:104A400000000010181E130001171F18100020602E
:104A5000E0E02000000020E06020000001073EF8B8
:104A6000E0180700000000000010101F1F101000C9
:104A7000000000806020202020A0E0E02000000056
:104A80000000C0F03E0F0300000000101C1F1710B4
:104A90001010101806000000000000FC04040404BC
:104AA00004000000000000FF000000000000000003
:104AB0000000007F404040404000000010E0000047
:104AC00000000000000000000000031C60800000E7
:104AD000000000000000000000030C7080000000D7
:104AE0000404040404FC00000000000000000000B6
:104AF00000FF00000000000040404040407F0000F8
:104B0000000000000010080C040C08100000000059
:104B10000000000000000000000000000000000095
:104B20000000000000000000000000000000000085
:104B30000000000000000000000000000000808075
:104B40008080808080808080808000000004040855
:104B5000080000000000000000000000000000004D
:104B60000000000000000000000000000000000045
:104B700000000000000000000000000098D844641D
:104B80002424FCF80000000F1F18101010081F1F2D
:104B900010180020E0F000000000000000000000FD
:104BA000FFFF180804040CF8F00000001F0F181095
:104BB0001010180F030000000000000000000000AB
:104BC000000000E0F8180404043C38000000000372
:104BD0000F0C10101010080600000000000000006C
:104BE0000020E0F0000000E0F81C04040408FFFFCF
:104BF000000000030F18101010081F0F080000001D
:104C0000000000000000000000000000E0F8484440
:104C100044444C7870000000030F0C18101010086A
:104C200004000000000080C0602020E0C0000004FC
:104C30000404FFFF040404040000000010101F1F00
:104C40001010100000000000000000000000000034
:104C50000000000070F88C04048CF874040C0070E0
:104C600076CF8D8D8D89C87870000020E0F000002F
:104C70000000000000000000FFFF08040404FCF82E
:104C8000000000101F1F100000101F1F1000000068
:104C9000000000606000000000000000040404FC4C
:104CA000FC000000000000001010101F1F1010106A
:104CB0000000000000000000006060000000000034
:104CC0000000040404FCFC0000000000C0C0808060
:104CD000C07F3F0000000020E0F000000000000066
:104CE00000000000FFFF80C0F41C0404000000105E
:104CF0001F1F1100031F1C1010000000202020E0C7
:104D0000F000000000000000000000FFFF000000B5
:104D1000000000001010101F1F10101000000000F5
:104D20000000000000000000000004FCFC0804FC7F
:104D3000FC0804FCFC00101F1F10001F1F10001FA8
:104D40001F10000000000000000000000000000430
:104D5000FCFC08080404FCF8000000101F1F1000F1
:104D600000101F1F100000000000000000000000E5
:104D7000000000E0F0180C04040C18F0E000000340
:104D80000F0C101010100C0F0300000000000000AA
:104D90000000000000000004FCFC080404040CF8FF
:104DA000F0000080FFFF889010101C0F030000002F
:104DB0000000000000000000000000E0F81C0404F7
:104DC0000408F8FC000000030F1810109088FFFF83
:104DD000800000000000000000000000000004044B
:104DE00004FCFC100804040C0C001010101F1F1011
:104DF0001010000000000000000000000000000093
:104E0000000000003078CCC48484840C1C000000B6
:104E10001E1810101011190F06000000000000C02D
:104E200000000000000000040404FFFF040404006C
:104E30000000000000000F1F1010100C0000000008
:104E4000000000000000000000000004FCFE000064
:104E50000004FCFE000000000F1F181010081F0FB8
:104E60000800000000000000000000000000000436
:104E70000C3CFCC40000C43C0C0400000000010F0A
:104E80001E0E0100000000000000000000000000F5
:104E90000000043CFCC400E47CFC84807C04000032
:104EA000071F070000071F070000000000000000A8
:104EB0000000000000000004041C7CE4C0341C045A
:104EC00004000010101C1601131F1C181000000015
:104ED0000000000000000000000000040C3CFCC4C6
:104EE00000C43C0404000000C080C1370E01000073
:104EF00000000000000000000000000000000000B2
:104F00001C0404C4F47C1C0400000000101C1F17C7
:104F1000111010180E0000000000000000F80C0432
:104F2000000000000000001028EF0000000000005A
:104F300000000000003F6040000000000000000092
:104F4000FF0000000000000000000000FF00000063
:104F50000000000000000000FF0000000000000052
:104F6000040CF80000000000000000000000EF2822
:104F7000100000000000000040603F000000000042
:104F8000000000180602020408102020300800006B
:104F90000000000000000000000000000000000011
:104FA0000000000000000000F010101010FF1010B2
:104FB0001010F000000000000F04040404FF0404BB
:104FC00004040F0000004040405F5555557555558D
:104FD000555F404040000040200F09498979090988
:104FE000090F2040000000FE02424ACA4A4ACA4A4B
:104FF0004A4202FE000000FF40504C4340404F50E8
:10500000505C40FF00000000F888888888FF88888E
:105010008888F800000000001F080808087F8888BA
:1050200088889F80F00080828282828282E2A292BF
:105030008A8682808000000000000040807F00009F
:10504000000000000000101010FF109008888888F1
:10505000FF88888808000444827F01808040432CB8
:105060001028468180000010101010D030FF30D082
:10507000121C1010000010080402010000FF0000C4
:1050800001020408100004040484E43C27242424BE
:1050900024E40404040004020100FF090909094989
:1050A000897F0000000000FE225A8600FE92929244
:1050B0009292FE00000000FF04080700FF4020035A
:1050C0000C14224140000080402018068000071880
:1050D000204080000000010020702826212020248C
:1050E0003860000101000010129292929292921286
:1050F0001202FE0000000000003F101010103F00E0
:1051000040807F000000000000C0808080808080A0
:1051100080FC84808080808080C0C000000000000F
:1051200000FF7F404040404040FF40404040404002
:1051300040FF7F00000000000000000000000000B1
:10514000007F700000000000000000000000000070
:1051500000000000000000000000000000FCF8005B
:10516000000000000000000000000000000000003F
:105170000000FFFE020202020202020202FFFF0220
:105180000202020202020202FF030000000000000D
:1051900000001F1F040404040404040404FFFF04AB
:1051A00004040404040404041F00000000000000C0
:1051B000000000000000000000000000007F3F0031
:1051C00000000000000000000000000000000000DF
:1051D00000000000000000000000000000000000CF
:1051E0000000000000000000000000F8F8F0F0707F
:1051F000200000000000000000000000000000008F
:10520000000000000000000000000000000000009E
:10521000000000000000800000000000000000000E
:105220000000000000000000000000FFFFFFFF0082
:10523000000000000000000000000000000000006E
:10524000000080800000000000000000000000005E
:1052500000000000000000FFFFFE0606060606062E
:105260000606060606060606060606FFFFFFFF06FA
:1052700006060606060606060606060606060606CE
:1052800006FFFFFFFF070200000000000000000013
:1052900000000000000000FFFFFF00000000000011
:1052A0000000000000000000000000FFFFFFFF0002
:1052B00000000000000000000000000000000000EE
:1052C00000FFFFFFFF0000000000000000000000E2
:1052D00000000000000000FFFFFF18181818181841
:1052E0001818181818181818181818FFFFFFFF18A2
:1052F000181818181818181818181818181818182E
:1053000018FFFFFFFF000000000000000000000089
:105310000000000000000201010000000000000089
:105320000000000000000000000000FFFFFFFF0081
:10533000000000000000000000000000000000006D
:10534000000101000000000000000000000000005B
:10535000000000000000000000000000000000004D
:105360000000000000000000000000FFFFFFFF0041
:10537000000000000000000000000000000000002D
:10538000000000000000000000000000000000001D
:10539000000000000000000000000000000000000D
:1053A00000000000000000000000001F1F0F0F00A1
:1053B00000000000000000000000000000000000ED
:1053C00000000000000000000000000000000000DD
:1053D000F053000800000020280000000C2A0008FC
:1053E0001854000828000020B00900001C2A0008FA
:1053F00000000000000000000000000001000000AC
:10540000100000000000000000127A000000000000
:08541000000000000000AF43A2
:04000005080000ED02
:00000001FF
